{
  "address": "0xCbcd472a3BbD563267020895af671D75b0F03D60",
  "abi": [
    {
      "inputs": [
        {
          "internalType": "bytes32",
          "name": "handle",
          "type": "bytes32"
        },
        {
          "internalType": "address",
          "name": "sender",
          "type": "address"
        }
      ],
      "name": "SenderNotAllowedToUseHandle",
      "type": "error"
    },
    {
      "inputs": [],
      "name": "ZamaProtocolUnsupported",
      "type": "error"
    },
    {
      "anonymous": false,
      "inputs": [
        {
          "indexed": true,
          "internalType": "address",
          "name": "patient",
          "type": "address"
        },
        {
          "indexed": true,
          "internalType": "address",
          "name": "viewer",
          "type": "address"
        },
        {
          "indexed": false,
          "internalType": "uint8",
          "name": "permissions",
          "type": "uint8"
        }
      ],
      "name": "AccessChanged",
      "type": "event"
    },
    {
      "anonymous": false,
      "inputs": [
        {
          "indexed": true,
          "internalType": "address",
          "name": "patient",
          "type": "address"
        },
        {
          "indexed": false,
          "internalType": "uint256",
          "name": "timestamp",
          "type": "uint256"
        }
      ],
      "name": "RecordUpdated",
      "type": "event"
    },
    {
      "inputs": [],
      "name": "confidentialProtocolId",
      "outputs": [
        {
          "internalType": "uint256",
          "name": "",
          "type": "uint256"
        }
      ],
      "stateMutability": "view",
      "type": "function"
    },
    {
      "inputs": [
        {
          "internalType": "address",
          "name": "patient",
          "type": "address"
        },
        {
          "internalType": "address",
          "name": "viewer",
          "type": "address"
        }
      ],
      "name": "getAccess",
      "outputs": [
        {
          "internalType": "uint8",
          "name": "",
          "type": "uint8"
        }
      ],
      "stateMutability": "view",
      "type": "function"
    },
    {
      "inputs": [
        {
          "internalType": "address",
          "name": "patient",
          "type": "address"
        }
      ],
      "name": "getLastUpdated",
      "outputs": [
        {
          "internalType": "uint256",
          "name": "",
          "type": "uint256"
        }
      ],
      "stateMutability": "view",
      "type": "function"
    },
    {
      "inputs": [
        {
          "internalType": "address",
          "name": "patient",
          "type": "address"
        }
      ],
      "name": "getRecord",
      "outputs": [
        {
          "internalType": "euint32",
          "name": "",
          "type": "bytes32"
        },
        {
          "internalType": "euint32",
          "name": "",
          "type": "bytes32"
        },
        {
          "internalType": "euint32",
          "name": "",
          "type": "bytes32"
        }
      ],
      "stateMutability": "view",
      "type": "function"
    },
    {
      "inputs": [
        {
          "internalType": "address",
          "name": "viewer",
          "type": "address"
        },
        {
          "internalType": "uint8",
          "name": "metricMask",
          "type": "uint8"
        }
      ],
      "name": "grantAccess",
      "outputs": [],
      "stateMutability": "nonpayable",
      "type": "function"
    },
    {
      "inputs": [
        {
          "internalType": "address",
          "name": "patient",
          "type": "address"
        }
      ],
      "name": "hasRecord",
      "outputs": [
        {
          "internalType": "bool",
          "name": "",
          "type": "bool"
        }
      ],
      "stateMutability": "view",
      "type": "function"
    },
    {
      "inputs": [
        {
          "internalType": "address",
          "name": "viewer",
          "type": "address"
        },
        {
          "internalType": "uint8",
          "name": "metricMask",
          "type": "uint8"
        }
      ],
      "name": "revokeAccess",
      "outputs": [],
      "stateMutability": "nonpayable",
      "type": "function"
    },
    {
      "inputs": [
        {
          "internalType": "externalEuint32",
          "name": "encBloodPressure",
          "type": "bytes32"
        },
        {
          "internalType": "externalEuint32",
          "name": "encHeartRate",
          "type": "bytes32"
        },
        {
          "internalType": "externalEuint32",
          "name": "encGlucose",
          "type": "bytes32"
        },
        {
          "internalType": "bytes",
          "name": "inputProof",
          "type": "bytes"
        }
      ],
      "name": "submitRecord",
      "outputs": [],
      "stateMutability": "nonpayable",
      "type": "function"
    }
  ],
  "transactionHash": "0x0a8b5759f3fcbd322b857f4ba7c6991b15fd0b36acfdd08dc08504dd3fd07dbc",
  "args": [],
  "numDeployments": 1,
  "solcInputHash": "6a40024a25137b00b83b7a76cd98d59c",
  "bytecode": "0x608060405234801561000f575f5ffd5b506100c461001b6100c9565b80517f9e7b61f58c47dc699ac88507c4f5bb9f121c03808c5676a8078fe583e464970080546001600160a01b03199081166001600160a01b039384161790915560208301517f9e7b61f58c47dc699ac88507c4f5bb9f121c03808c5676a8078fe583e46497018054831691841691909117905560408301517f9e7b61f58c47dc699ac88507c4f5bb9f121c03808c5676a8078fe583e46497028054909216921691909117905550565b610278565b604080516060810182525f808252602082018190529181019190915246600103610162575060408051606080820183525f8083526020808401829052928401528251908101835273ca2e8f1f656cd25c01f05d0b243ab1ecd4a8ffb6815273d82385dada1ae3e969447f20a3164f6213100e75918101919091527377627828a55156b04ac0dc0eb30467f1a552bb039181019190915290565b4662aa36a7036101e1575060408051606080820183525f8083526020808401829052928401528251908101835273f0ffdc93b7e186bc2f8cb3daa75d86d1930a433d81527392c920834ec8941d2c77d188936e1f7a6f49c1279181019190915273be0e383937d564d7ff0bc3b46c51f0bf8d5c311a9181019190915290565b46617a690361025f575060408051606080820183525f808352602080840182905292840152825190810183527350157cffd6bbfa2dece204a89ec419c23ef5755d815273e3a9105a3a932253a70f126eb1e3b589c643dd249181019190915273901f8942346f7ab3a01f6d7613119bca447bb0309181019190915290565b6040516373cac13b60e01b815260040160405180910390fd5b610b84806102855f395ff3fe608060405234801561000f575f5ffd5b5060043610610085575f3560e01c80638927b030116100585780638927b0301461013057806397d814c614610146578063ef12969b14610159578063fe23067514610184575f5ffd5b8063617fba04146100895780636f925535146100e357806384ec9653146100f857806387ed1bd01461011d575b5f5ffd5b6100c36100973660046109a1565b6001600160a01b03165f9081526001602081905260409091208054918101546002909101549192909190565b604080519384526020840192909252908201526060015b60405180910390f35b6100f66100f13660046109c1565b6101c2565b005b61010b6101063660046109fb565b61023f565b60405160ff90911681526020016100da565b6100f661012b3660046109c1565b61026c565b6101386103a0565b6040519081526020016100da565b6100f6610154366004610a2c565b6103ae565b6101386101673660046109a1565b6001600160a01b03165f9081526001602052604090206003015490565b6101b26101923660046109a1565b6001600160a01b03165f9081526001602052604090206004015460ff1690565b60405190151581526020016100da565b335f818152602081815260408083206001600160a01b03871680855290835292819020805460ff6007881680198316821660ff1984168117909455935183815293969116949193919290917f79d6539bfcc8507ec732c5409d1ba0e6351c705cd4d540793bc110094c294862910160405180910390a35050505050565b6001600160a01b038083165f908152602081815260408083209385168352929052205460ff165b92915050565b6001600160a01b0382166102c75760405162461bcd60e51b815260206004820152601660248201527f496e76616c69642076696577657220616464726573730000000000000000000060448201526064015b60405180910390fd5b335f818152602081815260408083206001600160a01b03871684528252808320805460ff19166007871690811790915593835260019091529020600481015460ff161561035757600182161561032557805461032390856105b3565b505b600282161561033e5761033c8160010154856105b3565b505b6004821615610357576103558160020154856105b3565b505b60405160ff831681526001600160a01b0385169033907f79d6539bfcc8507ec732c5409d1ba0e6351c705cd4d540793bc110094c2948629060200160405180910390a350505050565b5f6103a96105d6565b905090565b5f6103ee8684848080601f0160208091040260200160405190810160405280939291908181526020018383808284375f9201919091525061060a92505050565b90505f6104308685858080601f0160208091040260200160405190810160405280939291908181526020018383808284375f9201919091525061060a92505050565b90505f6104728686868080601f0160208091040260200160405190810160405280939291908181526020018383808284375f9201919091525061060a92505050565b6040805160a08101825285815260208082018681528284018581524260608501908152600160808601818152335f908152958290529690942094518086559251938501939093555160028401559051600383015591516004909101805460ff19169115159190911790559091506104e890610657565b50335f908152600160208190526040909120015461050590610657565b50335f9081526001602052604090206002015461052190610657565b50335f8181526001602052604090205461053a916105b3565b50335f8181526001602081905260409091200154610557916105b3565b50335f81815260016020526040902060020154610573916105b3565b5060405142815233907f375fc384aa96ea3af6165789b46e2a2f85dfae3f2920712be76da170eeb866349060200160405180910390a25050505050505050565b5f826105c5576105c25f610677565b92505b6105cf8383610689565b5090919050565b5f466001036105e55750600190565b4662aa36a7036105f6575061271190565b46617a690361060557505f1990565b505f90565b5f81515f146106265761061f83836004610712565b9050610266565b826106318133610832565b61061f57604051630276b5d960e01b8152600481018290523360248201526044016102be565b5f81610669576106665f610677565b91505b6106738230610689565b5090565b5f6102668263ffffffff1660046108d1565b5f7f9e7b61f58c47dc699ac88507c4f5bb9f121c03808c5676a8078fe583e46497008054604051635ca4b5b160e11b8152600481018690526001600160a01b03858116602483015292935091169063b9496b62906044015f604051808303815f87803b1580156106f7575f5ffd5b505af1158015610709573d5f5f3e3d5ffd5b50505050505050565b7f9e7b61f58c47dc699ac88507c4f5bb9f121c03808c5676a8078fe583e46497015460405163045fc19560e11b81525f917f9e7b61f58c47dc699ac88507c4f5bb9f121c03808c5676a8078fe583e4649700916001600160a01b03909116906308bf832a9061078b908890339089908990600401610ad3565b6020604051808303815f875af11580156107a7573d5f5f3e3d5ffd5b505050506040513d601f19601f820116820180604052508101906107cb9190610b2d565b8154604051630f8e573b60e21b8152600481018390523360248201529193506001600160a01b031690633e395cec906044015f604051808303815f87803b158015610814575f5ffd5b505af1158015610826573d5f5f3e3d5ffd5b50505050509392505050565b5f807f9e7b61f58c47dc699ac88507c4f5bb9f121c03808c5676a8078fe583e464970080546040516382027b6d60e01b8152600481018790526001600160a01b0386811660248301529293509116906382027b6d90604401602060405180830381865afa1580156108a5573d5f5f3e3d5ffd5b505050506040513d601f19601f820116820180604052508101906108c99190610b44565b949350505050565b7f9e7b61f58c47dc699ac88507c4f5bb9f121c03808c5676a8078fe583e464970154604051639cd07acb60e01b81525f917f9e7b61f58c47dc699ac88507c4f5bb9f121c03808c5676a8078fe583e4649700916001600160a01b0390911690639cd07acb906109469087908790600401610b63565b6020604051808303815f875af1158015610962573d5f5f3e3d5ffd5b505050506040513d601f19601f820116820180604052508101906108c99190610b2d565b80356001600160a01b038116811461099c575f5ffd5b919050565b5f602082840312156109b1575f5ffd5b6109ba82610986565b9392505050565b5f5f604083850312156109d2575f5ffd5b6109db83610986565b9150602083013560ff811681146109f0575f5ffd5b809150509250929050565b5f5f60408385031215610a0c575f5ffd5b610a1583610986565b9150610a2360208401610986565b90509250929050565b5f5f5f5f5f60808688031215610a40575f5ffd5b853594506020860135935060408601359250606086013567ffffffffffffffff811115610a6b575f5ffd5b8601601f81018813610a7b575f5ffd5b803567ffffffffffffffff811115610a91575f5ffd5b886020828401011115610aa2575f5ffd5b959894975092955050506020019190565b60548110610acf57634e487b7160e01b5f52602160045260245ffd5b9052565b8481526001600160a01b0384166020820152608060408201525f8351806080840152806020860160a085015e5f60a0828501015260a0601f19601f830116840101915050610b246060830184610ab3565b95945050505050565b5f60208284031215610b3d575f5ffd5b5051919050565b5f60208284031215610b54575f5ffd5b815180151581146109ba575f5ffd5b828152604081016109ba6020830184610ab356fea164736f6c634300081b000a",
  "devdoc": {
    "author": "MediVault Team",
    "details": "Enables patients to store encrypted health metrics and control access Key Features: - Health metrics are encrypted client-side before submission - Only encrypted values are stored on-chain - Per-metric permission control (Blood Pressure, Heart Rate, Glucose) - Patients grant/revoke access to doctors, hospitals, insurers Permission Bitmask: - Bit 0 (1): Blood Pressure - Bit 1 (2): Heart Rate - Bit 2 (4): Glucose Level - All metrics (7): Full access",
    "kind": "dev",
    "methods": {
      "getAccess(address,address)": {
        "params": {
          "patient": "Address of the patient (record owner)",
          "viewer": "Address of the potential viewer"
        },
        "returns": {
          "_0": "Permission bitmask (0 = no access)"
        }
      },
      "getLastUpdated(address)": {
        "params": {
          "patient": "Address to check"
        },
        "returns": {
          "_0": "Unix timestamp of last update (0 if no record)"
        }
      },
      "getRecord(address)": {
        "details": "Returns zero handles if patient hasn't submitted records",
        "params": {
          "patient": "Address to query records for"
        },
        "returns": {
          "_0": "Tuple of (bloodPressure, heartRate, glucoseLevel) encrypted handles"
        }
      },
      "grantAccess(address,uint8)": {
        "details": "Permissions are cumulative - calling with new mask updates the stored value",
        "params": {
          "metricMask": "Bitmask of metrics (1=BP, 2=HR, 4=Glucose, 7=All)",
          "viewer": "Address to grant permissions to (doctor, hospital, etc.)"
        }
      },
      "hasRecord(address)": {
        "params": {
          "patient": "Address to check"
        },
        "returns": {
          "_0": "True if the patient has initialized their health record"
        }
      },
      "revokeAccess(address,uint8)": {
        "details": "FHE ACL cannot be revoked on existing ciphertexts, but new records      will not include the revoked viewer in the allow list",
        "params": {
          "metricMask": "Bitmask of metrics to revoke (use 7 to clear all)",
          "viewer": "Address to revoke permissions from"
        }
      },
      "submitRecord(bytes32,bytes32,bytes32,bytes)": {
        "details": "Encrypts metrics client-side before calling this function",
        "params": {
          "encBloodPressure": "Encrypted systolic blood pressure",
          "encGlucose": "Encrypted glucose level in mg/dL",
          "encHeartRate": "Encrypted heart rate in BPM",
          "inputProof": "Zama relayer input proof for verification"
        }
      }
    },
    "title": "MedicalRecord",
    "version": 1
  },
  "userdoc": {
    "errors": {
      "SenderNotAllowedToUseHandle(bytes32,address)": [
        {
          "notice": "Returned if the sender is not allowed to use the handle."
        }
      ],
      "ZamaProtocolUnsupported()": [
        {
          "notice": "Returned if the Zama protocol is not supported on the current chain"
        }
      ]
    },
    "events": {
      "AccessChanged(address,address,uint8)": {
        "notice": "Emitted when permissions are granted or revoked"
      },
      "RecordUpdated(address,uint256)": {
        "notice": "Emitted when a patient submits or updates their health metrics"
      }
    },
    "kind": "user",
    "methods": {
      "getAccess(address,address)": {
        "notice": "Get the permission bitmask for a viewer"
      },
      "getLastUpdated(address)": {
        "notice": "Get the last update timestamp for a patient's record"
      },
      "getRecord(address)": {
        "notice": "Get encrypted health metric handles for a patient"
      },
      "grantAccess(address,uint8)": {
        "notice": "Grant viewing permissions to a doctor/hospital/insurer"
      },
      "hasRecord(address)": {
        "notice": "Check if a patient has submitted health records"
      },
      "revokeAccess(address,uint8)": {
        "notice": "Revoke viewing permissions from an address"
      },
      "submitRecord(bytes32,bytes32,bytes32,bytes)": {
        "notice": "Submit or update encrypted health metrics"
      }
    },
    "notice": "Privacy-preserving medical records using Fully Homomorphic Encryption",
    "version": 1
  },
  "storageLayout": {
    "storage": [
      {
        "astId": 41165,
        "contract": "contracts/MedicalRecord.sol:MedicalRecord",
        "label": "_permissions",
        "offset": 0,
        "slot": "0",
        "type": "t_mapping(t_address,t_mapping(t_address,t_uint8))"
      },
      {
        "astId": 41170,
        "contract": "contracts/MedicalRecord.sol:MedicalRecord",
        "label": "_records",
        "offset": 0,
        "slot": "1",
        "type": "t_mapping(t_address,t_struct(HealthMetrics)41137_storage)"
      }
    ],
    "types": {
      "t_address": {
        "encoding": "inplace",
        "label": "address",
        "numberOfBytes": "20"
      },
      "t_bool": {
        "encoding": "inplace",
        "label": "bool",
        "numberOfBytes": "1"
      },
      "t_mapping(t_address,t_mapping(t_address,t_uint8))": {
        "encoding": "mapping",
        "key": "t_address",
        "label": "mapping(address => mapping(address => uint8))",
        "numberOfBytes": "32",
        "value": "t_mapping(t_address,t_uint8)"
      },
      "t_mapping(t_address,t_struct(HealthMetrics)41137_storage)": {
        "encoding": "mapping",
        "key": "t_address",
        "label": "mapping(address => struct MedicalRecord.HealthMetrics)",
        "numberOfBytes": "32",
        "value": "t_struct(HealthMetrics)41137_storage"
      },
      "t_mapping(t_address,t_uint8)": {
        "encoding": "mapping",
        "key": "t_address",
        "label": "mapping(address => uint8)",
        "numberOfBytes": "32",
        "value": "t_uint8"
      },
      "t_struct(HealthMetrics)41137_storage": {
        "encoding": "inplace",
        "label": "struct MedicalRecord.HealthMetrics",
        "members": [
          {
            "astId": 41126,
            "contract": "contracts/MedicalRecord.sol:MedicalRecord",
            "label": "bloodPressure",
            "offset": 0,
            "slot": "0",
            "type": "t_userDefinedValueType(euint32)41554"
          },
          {
            "astId": 41129,
            "contract": "contracts/MedicalRecord.sol:MedicalRecord",
            "label": "heartRate",
            "offset": 0,
            "slot": "1",
            "type": "t_userDefinedValueType(euint32)41554"
          },
          {
            "astId": 41132,
            "contract": "contracts/MedicalRecord.sol:MedicalRecord",
            "label": "glucoseLevel",
            "offset": 0,
            "slot": "2",
            "type": "t_userDefinedValueType(euint32)41554"
          },
          {
            "astId": 41134,
            "contract": "contracts/MedicalRecord.sol:MedicalRecord",
            "label": "lastUpdated",
            "offset": 0,
            "slot": "3",
            "type": "t_uint256"
          },
          {
            "astId": 41136,
            "contract": "contracts/MedicalRecord.sol:MedicalRecord",
            "label": "initialized",
            "offset": 0,
            "slot": "4",
            "type": "t_bool"
          }
        ],
        "numberOfBytes": "160"
      },
      "t_uint256": {
        "encoding": "inplace",
        "label": "uint256",
        "numberOfBytes": "32"
      },
      "t_uint8": {
        "encoding": "inplace",
        "label": "uint8",
        "numberOfBytes": "1"
      },
      "t_userDefinedValueType(euint32)41554": {
        "encoding": "inplace",
        "label": "euint32",
        "numberOfBytes": "32"
      }
    }
  }
}